:060000000A128A1110280B
:10000800FE00030E83120313A0000408A1000A08CF
:10001800A2000A128A11EA280A128A1113288313E5
:100028005C30FD000F30FE00CA30FF004330840012
:100038000A128A158C270A128A11A0308400D2303D
:100048000A128A1555270A128A115C308400673013
:100058000A128A1555270A128A1183010A128A116F
:10006800122BF5007108FF3EF30072080318013ED9
:10007800FF3EF4008312031365087406031D462827
:1000880064087306031D49284A286B286408750705
:10009800F300730884000A128A1542270A128A118B
:1000A80083138000013083120313E4070318E50A61
:1000B8000030E50764087507F300730884008001C1
:1000C800E401E5010130F1000030F2008128640804
:1000D8007507F300730884000A128A1542270A126A
:1000E8008A1183138000013083120313E407031875
:1000F800E50A0030E507F101F20108008312031355
:10010800AC00FF30AA00FF30AB00B9282C088400EF
:10011800831300082A06A9000130FF007F08AC07F6
:1001280008300310AB0CAA0CFF3E031D95282908C4
:10013800A500A6010310A50DA60D81302607FF0016
:100148001230250784000318FF0A0A128A110021B9
:100158000A128A11A7000A128A1100210A128A11AA
:10016800A8002708AA062808AB060130A302003019
:10017800031CA403A402230A031DC628240A031D82
:10018800C628C7288A282B08A4002A08A300080024
:1001980083120313A800A701DC2827082807A50055
:1001A80025088400831380010130FF007F08A7071A
:1001B8002708A500A60124082602031DE528230810
:1001C8002502031CE828E928D12808008C1EED2800
:1001D800EE28F428A0300A128A1576270A128A1106
:1001E8008312031322088A0021088400200E83004A
:0601F800FE0E7E0E090060
:10020000FF1B0A2983137F1883170008840A031928
:10021000FF0A08007F087F398A000408840A03194E
:10022000FF0A820000340034C134C0348134C13448
:10023000403401340134C334C034033480340234D4
:100240004134C2340134C634C034063480340734F7
:100250004134C73400340534C134C5348134C43426
:10026000403404340134CC34C0340C3480340D3484
:100270004134CD3400340F34C134CF348134CE34E2
:1002800040340E3400340A34C134CA348134CB349F
:1002900040340B340134C934C03409348034083458
:1002A0004134C8340134D834C0341834803419345B
:1002B0004134D93400341B34C134DB348134DA3472
:1002C00040341A3400341E34C134DE348134DF3417
:1002D00040341F340134DD34C0341D3480341C34C8
:1002E0004134DC3400341434C134D4348134D53452
:1002F000403415340134D734C034173480341634C4
:100300004134D6340134D234C034123480341334FE
:100310004134D33400341134C134D1348134D03435
:10032000403410340134F034C0343034803431344B
:100330004134F13400343334C134F3348134F23491
:100340004034323400343634C134F6348134F73436
:10035000403437340134F534C034353480343434E7
:100360004134F43400343C34C134FC348134FD3441
:1003700040343D340134FF34C0343F3480343E34A3
:100380004134FE340134FA34C0343A3480343B34DE
:100390004134FB3400343934C134F9348134F83415
:1003A0004034383400342834C134E8348134E934FA
:1003B000403429340134EB34C0342B3480342A34B3
:1003C0004134EA340134EE34C0342E3480342F34D6
:1003D0004134EF3400342D34C134ED348134EC3405
:1003E00040342C340134E434C03424348034253493
:1003F0004134E53400342734C134E7348134E63401
:100400004034263400342234C134E2348134E334BD
:10041000403423340134E134C03421348034203476
:100420004134E0340134A034C03460348034613469
:100430004134A13400346334C134A3348134A23450
:100440004034623400346634C134A6348134A73475
:10045000403467340134A534C034653480346434A6
:100460004134A43400346C34C134AC348134AD3400
:1004700040346D340134AF34C0346F3480346E3462
:100480004134AE340134AA34C0346A3480346B341D
:100490004134AB3400346934C134A9348134A834D4
:1004A0004034683400347834C134B8348134B934D9
:1004B000403479340134BB34C0347B3480347A34F2
:1004C0004134BA340134BE34C0347E3480347F3495
:1004D0004134BF3400347D34C134BD348134BC3444
:1004E00040347C340134B434C034743480347534D2
:1004F0004134B53400347734C134B7348134B63440
:100500004034763400347234C134B2348134B3347C
:10051000403473340134B134C034713480347034B5
:100520004134B03400345034C13490348134913487
:100530004034513401349334C03453348034523411
:100540004134923401349634C034563480345734B4
:100550004134973400345534C13495348134943463
:100560004034543401349C34C0345C3480345D34C1
:1005700041349D3400345F34C1349F3481349E341F
:1005800040345E3400345A34C1349A3481349B345C
:1005900040345B3401349934C03459348034583495
:1005A0004134983401348834C03448348034493478
:1005B0004134893400344B34C1348B3481348A342F
:1005C00040344A3400344E34C1348E3481348F3454
:1005D00040344F3401348D34C0344D3480344C3485
:1005E00041348C3400344434C1348434813485340F
:1005F0004034453401348734C03447348034463481
:100600004134863401348234C0344234803443343B
:100610004134833400344134C134813481348034F2
:10062000403440340A128A1548270A128A11222CB3
:100630001930AD000030AE00AF01AF0A0530B00098
:10064000ED30B1000330B2000730B3000030B40029
:10065000B9300A128A11C6250A128A11003A031DFE
:10066000322B332B492C43300A128A15B2270A1237
:100670008A11492C1930AD000030AE000230AF00B5
:100680000530B000E930B1000330B2000730B300EC
:100690000030B400B9300A128A11C6250A128A1134
:1006A000003A031D542B552B492C43300A128A154E
:1006B000B2270A128A11492C1930AD000030AE0061
:1006C0000330AF000530B000A330B1000F30B200EE
:1006D0000330B3000030B400B9300A128A113F264B
:1006E0000A128A11003A031D762B772B492C4330CE
:1006F0000A128A15B2270A128A11492C1930AD0044
:100700000030AE000430AF000530B000A530B100BD
:100710000F30B2000230B3000030B400B9300A121A
:100720008A113F260A128A11003A031D982B992B31
:10073000492C43300A128A15B2270A128A11492C11
:100740001930AD000030AE000530AF00EB30B00026
:100750000330B100B201B9300A128A111C270A1203
:100760008A11003A031DB52BB62B492C43300A12CF
:100770008A15B2270A128A11492C1930AD000030AF
:10078000AE000530AF00A130B0000F30B1000F3027
:10079000B2000030B300B9300A128A1182270A125F
:1007A0008A11003A031DD52BD62B492C43300A124F
:1007B0008A15B2270A128A11492C1930AD0000306F
:1007C000AE000530AF00E930B0000330B1000D30AD
:1007D000B2000030B3005A30B400B9300A128A11A6
:1007E0002F250A128A11003A031DF72BF82B492CEA
:1007F00043300A128A15B2270A128A11492CE601DF
:100800001930AD000030AE000530AF00A230B000AE
:100810000F30B1000230B2000030B3005630B400E7
:10082000B9300A128A115C240A128A11003A031D97
:100830001A2C1B2C492C43300A128A15B2270A1293
:100840008A11492C013083120313E607FF30660733
:10085000C000C1014108003A03192F2C492C40085F
:10086000003A0319182B013A03193A2B033A0319DA
:100870005C2B013A03197E2B073A0319A02B013A8E
:100880000319BD2B033A0319DD2B013A0319FF2B82
:10089000492C153083120313C2004B30C100BD3008
:1008A000C000C00B512CC10B512CC20B512C582C29
:1008B000222C0A128A11102883120313BF002E085B
:1008C000A4002D08A3003F080A128A11CC200A12A6
:1008D0008A11831203133F0884002F0883138000BA
:1008E0003F0A8400103080003F08033E8400300837
:1008F00080003F08023E8400310880003F08053E2A
:100900008400320880003F08043E840033088000E1
:100910003F08063E84003208B50035078000BE015E
:10092000E72C3E18942C952CBF2C0230A3000030ED
:10093000A4003E08B500B6013508A5003608A6009B
:100940000A128A11B3260A128A118312031323088A
:10095000B70037073407B80038088400831300084D
:10096000B900840A0008BA003A08FF003E083F07B1
:10097000BB003B08033E84007F088000E32C02306C
:10098000A3000030A4003E08B500B6013508A5005C
:100990003608A6000A128A11B3260A128A11831297
:1009A00003132308B70037073407B800380884005A
:1009B00083130008FF003E083F07B9003908033ED3
:1009C00084007F0880000130FF007F08BE073308E5
:1009D000B6003208B5000310B50DB60D3E08B700DD
:1009E000B80136083802031DF72C35083702031CFE
:1009F000FA2CFB2C912C3E08B500B6013508A3005B
:100A00003608A4003F080A128A1182200A128A11AD
:100A1000831203132408BD002308BC003E083F07CF
:100A2000B500350884003C08831380000130FF00C6
:100A30007F08BE073E083F07B500350884003D0823
:100A400080003F080A128A15B2270A128A1108305C
:100A500083120313DE000030DF0001300800831230
:100A60000313BE002E08A4002D08A3003E080A129E
:100A70008A11CC200A128A11831203133E088400C3
:100A80002F08831380003E0A84000F3080003E0848
:100A9000033E8400300880003E08023E8400310896
:100AA00080003E08053E8400320880003E08043E77
:100AB000840033088000BD01702D3D083407B50067
:100AC000350884000008FF003D083E07B6003608E0
:100AD000063E84007F0880000130FF007F08BD07CC
:100AE0003308B6003208B5000310B60CB50C03107D
:100AF000B60CB50C0310B60CB50C3508013EB700AA
:100B000036080318013E003EB8003D08B900BA019E
:100B100038083A02031D8E2D37083902031C912D27
:100B2000922D5D2D3D08B500B6013508A3003608AD
:100B3000A4003E080A128A1182200A128A11831226
:100B400003132408BC002308BB003D083E07B50082
:100B5000350884003B08831380000130FF007F08C4
:100B6000BD073D083E07B500350884003C088000FD
:100B70003E080A128A15B2270A128A110830831217
:100B80000313DE000030DF0001300800831203137E
:100B9000B9002E08A4002D08A30039080A128A11F2
:100BA000CC200A128A1183120313390884003008FA
:100BB000831380002F03031DDE2DDF2DE42D390A62
:100BC00084008001800AF12D02302F06031DE92DDB
:100BD000EA2DEF2D390A840002308000F12D00301B
:100BE0003E2E3908033E8400310880003908023E59
:100BF0008400320880003908053E840033088000F4
:100C00003908043E8400340880000630A300003018
:100C1000A40039080A128A1182200A128A1183124A
:100C200003132408B8002308B7003908063E8400DF
:100C30003708831380003908073E84003808800095
:100C400039080A128A15B2270A128A11831203136D
:100C50003408B6003308B5000310B60CB50C031009
:100C6000B60CB50C0310B60CB50C3508063EDE000C
:100C700036080318013E003EDF00013008008312F1
:100C80000313B9002E08A4002D08A30039080A1286
:100C90008A11CC200A128A118312031339088400A6
:100CA00030088313800003302F06031D582E592E61
:100CB0005E2E390A8400033080006B2E04302F062C
:100CC000031D632E642E692E390A840004308000CF
:100CD0006B2E0030B22E3908033E840031088000AC
:100CE0003908023E8400320880003908053E84003D
:100CF000330880003908043E840034088000063040
:100D0000A3000030A40039080A128A1182200A12B6
:100D10008A11831203132408B8002308B700390886
:100D2000063E84003708831380003908073E84009C
:100D30003808800039080A128A15B2270A128A1167
:100D4000831203133408B6003308B5000310B50D41
:100D5000B60D3508053EDE0036080318013E003E9C
:100D6000DF000130080083120313A801A41FB92E6D
:100D7000BA2EC12EA309A409A30A0319A40AA80123
:100D8000A80AA61FC42EC52ECE2EA509A609A50AFF
:100D90000319A60A0130FF007F08A806A901AA01CD
:100DA000230824040319D52ED62E0D2FA701A70A38
:100DB000E42E01300310A30DA40DFF3E031DDA2E17
:100DC0000130FF007F08A707A41FE72EE82ED92EC9
:100DD00001300310A90DAA0DFF3E031DE92E2408C2
:100DE0002602031DF52E23082502031CF82EF92EDA
:100DF000002F2308A5022408031CA603A602291419
:100E000001300310A40CA30CFF3E031D012F013081
:100E1000A702031D0C2F0D2FE82E28080319112FF0
:100E2000122F172FA909AA09A90A0319AA0A2A0821
:100E3000A4002908A300080083120313B5002E089C
:100E4000A4002D08A30035080A128A11CC200A122A
:100E50008A1183120313350884002F08831380003E
:100E6000350A8400053080003508033E84003008D0
:100E700080003508023E8400310880003508053EB8
:100E8000840080013208031D462F472F4D2F35085F
:100E9000043E8400FF308000592F3203031D512F80
:100EA000522F572F3508043E84008001592F0030FF
:100EB000812F0630A3000030A40035080A128A11E1
:100EC00082200A128A11831203132408B400230813
:100ED000B3003508063E84003308831380003508CC
:100EE000073E84003408800035080A128A15B227AC
:100EF0000A128A11083083120313DE000030DF006B
:100F00000130080083120313B6002E08A4002D0838
:100F1000A30036080A128A11CC200A128A11831201
:100F20000313360884002F0883138000360A8400D8
:100F3000063080003608033E840030088000360802
:100F4000023E8400310880003608053E84003208E5
:100F500080003608043E8400330880000630A30079
:100F60000030A40036080A128A1182200A128A115F
:100F7000831203132408B5002308B4003608063E84
:100F800084003408831380003608073E8400350847
:100F9000800036080A128A15B2270A128A11083010
:100FA00083120313DE000030DF00013008008312DB
:100FB0000313A700A501A601F02F25082707A40009
:100FC0002408840000080A128A1568270A128A1168
:100FD000013083120313A5070318A60A0030A607E1
:100FE00025082707A4002408840083130008031D94
:080FF000FA2FFB2FDD2F080092
:101E8400831203131A08F000700808000A128A1556
:101E94005D270A128A15080083160313081083129B
:101EA40003130810080064008001840A040603195F
:101EB40000340406562F0A128A154E270A128A1570
:101EC4000A128A15E3270A128A15080083120313DB
:101ED400A30083160313981C702F712F6B2F83128A
:101EE4000313230899000800FD00831203135F08FD
:101EF400F7005E08F6007D080A128A159B270A126D
:101F04008A157708FC007608FB0008007E088A0022
:101F14007F0882000A128A1588270A128A1580000F
:101F2400840A04087D0603190034FF0A0319FE0A13
:101F34008C2FFA008312031308107708F200760836
:101F4400F1007A080A128A1135200A128A157208D9
:101F5400F9007108F8007908F7007808F60008001D
:101F640083120313AA0008142A080A128A11D72715
:101F74000A128A15033083120313A9009730A800AC
:101F8400A80BC22FA90BC22F831203130810080039
:101F94005434723461346E3473346D34693473344C
:101FA400733469346F346E3420346534723472346B
:101FB4006F34723400347134003430340034CD342E
:101FC40021348316031307178717831203139817F3
:101FD400831603131812181383120313181383168A
:101FE4000313981683120313181683160313181574
:0C1FF400103099008C160B178B1708009A
:08400000FF3FFF3FFF3FFF3FC0
:02400E00FA3F77
:00000001FF
